:02000000E72AED
:10000800FF00030E8301E8000A08E9008A010B1DBE
:100018001328C70A0319C80A0B110630810069089A
:0C0028008A00680E8300FF0E7F0E0900A6
:0400340000000800C0
:10003800103083120313FD00FD0B20280000080078
:10004800083083120313FC002330FD00FD0B2A281F
:06005800FC0B2A28080041
:10005E0083160313BC1B362883128711382883128C
:10006E00871583163C1B3E288312071140288312E6
:10007E0007158316BC1A4628831287104828831248
:10008E00871483163C1A4E288312071050288312A9
:10009E0007146018542807165528071287161A20B9
:1000AE0087128316BC195E2883128711602883126B
:1000BE00871583163C196628831207116828831248
:1000CE0007158316BC186E288312871070288312AA
:1000DE00871483163C18762883120710782883120B
:1000EE00071460187C2807167D28071287161A2019
:0E00FE008712601C8428242085281C200800FE
:10010C0083120313601083163B08BC002F2060146D
:02011C000800D9
:0E011E00033083120313FD00FD0B932808002D
:10012C0083160313B601B801B9011030BA000430BC
:10013C0039020318CB28F030831288008030F0008D
:10014C007008083E840083163A09F000700880009D
:10015C001A201A200F3083120805F000700883163D
:10016C00B70070080319C5283808B60037080319FA
:10017C00C328B70CB713B60ABC280430B900BA0DA3
:10018C003A100430B807B90A9D283608F000080068
:10019C00831603133608F2007208F000F20A700896
:1001AC00840000080319DB28D22836087202F000FC
:0C01BC000130F002F101031CF103080007
:1001C800831603133608F2003808F0003908F100E6
:1001D8000130B802031CB903700871040319FA2826
:1001E8007208840037088000F20AE8283608F00010
:0201F8000800FD
:1001FA000F29803083160313B6002229C030B600B7
:10020A0022299430B6002229D430B600222980301F
:10021A00B6002229831603133608013A0319FE2869
:10022A003608023A031903293608033A031906293C
:10023A003608043A031909290C293703F00036084D
:10024A00F0077008B6007008BC002F2060108316F3
:10025A00B901390838078400000803193D2939080B
:10026A00380784000008BB0086208316B90A2E29A5
:06027A008312601408006D
:1002800083120313F801F9011030FC00710DF80D11
:10029000F90D7408F8027508031C750FF9020318AC
:1002A00058297408F80775080318750FF907031023
:0A02B000F00DF10DFC0B46290800CB
:0E02BA00831203135E088A005D0882000800AC
:1002C800962070088312EA000F300805F000031921
:0C02D8006F298F2068296A08F0000800D8
:1002E400831203136A0884000008031986296A0824
:1002F40084000008F1006B08840071080006031DE7
:100304008629EA0AEB0A72296A0884000008F000C8
:100314006B0884000008F002F101031CF1030800DB
:10032400A03083160313B600CE207008B8007108FD
:10033400B900A030B600B701E4200130BC002F2082
:1003440001308316B6000130B7002230B800FD201A
:0E035400A001A1010130B2000030B30008008A
:1003620083120313EB016B086A0784000008031968
:10037200C3296B086A07840000088316BB00862025
:06038200EB0AB42908009B
:1003880083120313EE0106306E020318D2296E0899
:100398006C07840030308000EE0AC7296E086C07AD
:1003A8008400800100306B06031DDC2900306A06DA
:1003B800031DDF293E2AED0180306B06F0008030F6
:1003C8007002031DE92900306A020318F929013077
:1003D800ED006A08003C8316B40083126B08031C06
:1003E800013E8316B501B502012A83126A088316F5
:1003F800B40083126B088316B50005308312EE0033
:10040800003083163506031D0B2A00303406031905
:10041800362A83126E086C07EF000A30F4000030A9
:10042800F50083163408F0003508F10040217808FB
:10043800F0007908F1003030F0076F088400700888
:100448008000EE030A30F4000030F500831634080B
:10045800F0003508F100402170088316B4007108D7
:10046800B500042A83126D0803193E2A6C0884001B
:060478002D308000080099
:10047E008B168B17831603138112811101108114B1
:0A048E0001110630831281000800FE
:100498008316031387120712071087100711871195
:1004A800831287120712871107118710071024205B
:1004B800242024208714071487161A208712242042
:1004C80087161A208712242087161A2087122420BC
:1004D800071087161A208712242087161A208712D9
:1004E8008710871587161A2087122420871107146A
:1004F80087161A208712071087161A2087122420B9
:1005080087161A208712071487161A2087122420A4
:10051800071087161A2087128715071587140714DE
:0C05280087161A20871224206014080097
:10053400803083120313F0007008083E8400FF30FB
:04054400800008002B
:10054800B62A803083120313EA00C92AC030EA00B1
:10055800C92A9430EA00C92AD430EA00C92A80306E
:10056800EA00C92A831203136A08013A0319A52A63
:100578006A08023A0319AA2A6A08033A0319AD2A33
:100588006A08043A0319B02AB32A6B03F0006A0810
:10059800F0077008EA00601470088316BC002F206A
:0E05A80060106C088316BC002F206014080041
:1005B6005D218A110A128000840ADD0A0319DE0A07
:0805C600F003031DDB2A08000D
:1005CE0040248316031386139A224C223F220130B5
:1005DE008316BC002F200C308316BC002F20013058
:1005EE008316B6000130B7004930B800FD20480828
:1005FE00013A031D042BF4304706031D382BC701A7
:10060E00C801DB0A0319DC0A59085A040319382BEE
:10061E005B08EA005C08EB006130EC00C42102309C
:10062E008316B6000630B7006130B800FD200030EA
:10063E005C06031D242B04305B06031D382B86132A
:10064E00D901DA010630FB001330FC00AD30FD009D
:10065E00FD0B2F2BFC0B2F2BFB0B2F2B0000000069
:10066E009221DF0100305A06031D3F2B0030590640
:10067E00031D442B64217008DF005F08003A031944
:10068E00FB2B6D2B3130DF009D2B3230DF009D2B8D
:10069E003330DF009D2B3430DF009D2B3530DF00F3
:1006AE009D2B3630DF009D2B3730DF009D2B3830F1
:1006BE00DF009D2B3930DF009D2B2A30DF009D2B74
:1006CE003030DF009D2B2330DF009D2B5F08013A79
:1006DE000319492B5F08023A03194C2B5F08033AA2
:1006EE0003194F2B5F08053A0319522B5F08063A80
:1006FE000319552B5F08073A0319582B5F08093A5F
:10070E0003195B2B5F080A3A03195E2B5F080B3A3D
:10071E000319612B5F080D3A0319642B5F080E3A1B
:10072E000319672B5F080F3A03196A2B5F082A3AE1
:10073E00031DA32B9221FB2B5F08233A031DE92BEC
:10074E003430EA00A030EB00722100307106031D38
:10075E00B22B00307006031DD22B01308316BC0065
:10076E002F203F30EA00B121DB01DC01EA01EB0171
:10077E006130EC00C42102308316B6000630B7009B
:10078E006130B800FD208617C701C8010130D900BD
:10079E000030DA00E82B01308316BC002F203930F0
:1007AE00EA00B1210630FB001330FC00AD30FD0035
:1007BE00FD0BDF2BFC0BDF2BFB0BDF2B00000000F8
:1007CE009221FB2B2008A03E84005F088000A00A27
:1007DE000319A10A0230EA003208EB002A30EC00BD
:0C07EE00A422B20A0319B30AFE2AFC2B55
:10088000203084003D3083120313F0000230DD007D
:080890000430DE00DB22080049
:040804000034003488
:1008080045346E3474346534723420345034613471
:100818007334733477346F34723464343A34003454
:040828000134003463
:0A082C0031343234333434340034F4
:0C083600573452344F344E3447340034F1
:1008420043344F34523452344534433454340034F4
:04085200003400343A
:1008560045346E3474346534723420345034613423
:100866007334733477346F34723464343A34003406
:040876000034003416
:04087A000034003412
:02400E004A2F37
:00000001FF
