:02000000322AA2
:10000800FF00030E8301E9000A08EA008A010B1DBC
:100018001328A00A0319A10A0B11063081006A08E7
:0C0028008A00690E8300FF0E7F0E0900A5
:0400340000000800C0
:10003800083083120313FC002330FD00FD0B222837
:06004800FC0B2228080059
:10004E00103083120313FD00FD0B2B280000080057
:10005E0083160313A41B36288312871138288312A4
:10006E0087158316241B3E288312071140288312FE
:10007E0007158316A41A4628831287104828831260
:10008E0087148316241A4E288312071050288312C1
:10009E0007145118542807165528071287161A20C8
:1000AE0087128316A4195E28831287116028831283
:1000BE008715831624196628831207116828831260
:1000CE0007158316A4186E288312871070288312C2
:1000DE008714831624187628831207107828831223
:1000EE00071451187C2807167D28071287161A2028
:0E00FE008712511C84281C208528272008000A
:0E010C008312031353088A0052088200080071
:0E011A00033083120313FD00FD0B9128080033
:1001280083120313EF018316A101A2011030A3006B
:10013800043022020318CE28F03083128800803061
:10014800F0007008083E840083162309F000700848
:1001580080001A201A200F3083120805F00070085A
:100168008316A00070080319C82821088312EF001D
:10017800831620080319C528A00CA0138312EF0AC0
:10018800BC2804308316A200A30D23100430A10755
:0C019800A20A9C2883126F08F0000800E7
:1001A4008312031351106F088316A4002F205114D7
:0201B400080041
:1001B600831203136B08840000080319EF286B08E9
:1001C60084000008F1006C08840071080006031D15
:1001D600EF28EB0AEC0ADB286B0884000008F00025
:1001E6006C0884000008F002F101031CF10308000A
:1001F60086208A110A128000840AD20A0319D30AB9
:08020600F003031DFB280800B2
:10020E001929803083120313EB002C29C030EB0028
:10021E002C299430EB002C29D430EB002C29803083
:10022E00EB002C29831203136B08013A03190829DA
:10023E006B08023A03190D296B08033A03191029AA
:10024E006B08043A0319132916296C03F0006B0886
:10025E00F0077008EB00511470088316A4002F20CD
:0E026E0051106D088316A4002F2051140800B3
:10027C0083120313EC016C086B078400000803194C
:10028C004F296C086B0784000008EF00D220EC0AA1
:04029C0041290800EC
:1002A000831203136B08F2007208F000F20A700860
:1002B0008400000803195D2954296B087202F000BC
:0C02C0000130F002F101031CF103080002
:1002CC0094207008EB000F300805F000031970291A
:0A02DC008D2069296B08F00008006E
:1002E6008B168B178316031381128111011081144B
:0A02F6000111063083128100080098
:10030000831203136B08F2006D08F0006E08F10011
:100310000130ED02031CEE037008710403199629E5
:10032000720884006C088000F20A84296B08F000CF
:020330000800C3
:10033200803083120313F0007008083E8400FF30FF
:04034200800008002F
:1003460083160313871207120710871007118711E8
:1003560083128712071287110711871007101C20B6
:100366001C201C208714071487161A2087121C20AD
:1003760087161A2087121C2087161A2087121C201F
:10038600071087161A2087121C2087161A20871234
:100396008710871587161A2087121C2087110714C5
:1003A60087161A208712071087161A2087121C2014
:1003B60087161A208712071487161A2087121C2000
:1003C600071087161A208712871507158714071432
:0C03D60087161A2087121C205114080002
:1003E200032A803083120313EB00162AC030EB007D
:1003F200162A9430EB00162AD430EB00162A8030ED
:10040200EB00162A831203136B08013A0319F2292F
:100412006B08023A0319F7296B08033A0319FA2900
:100422006B08043A0319FD29002A6C03F0006B08DB
:10043200F0077008EB0070088316A4002F205110FB
:10044200EE016E086D07840000080319302A6E0859
:100452006D0784000008EF00D220EE0A222A511410
:02046200080090
:1004640046238316031386139921A321013083168F
:10047400A4002F200C308316A4002F200130EB00A1
:100484000130EC004330ED00F1217321803021066E
:10049400F0008030073A7002031D522AD030200247
:1004A400031C552A8613D40166217008D4007008F1
:1004B40003190E2B861B0E2B832A3130D400B32A4A
:1004C4003230D400B32A3330D400B32A3430D400C9
:1004D400B32A3530D400B32A3630D400B32A3730A7
:1004E400D400B32A3830D400B32A3930D400B32A24
:1004F4002A30D400B32A3030D400B32A2330D400B5
:10050400B32A5408013A03195F2A5408023A03191A
:10051400622A5408033A0319652A5408053A031950
:10052400682A5408063A03196B2A5408073A03192F
:100534006E2A5408093A0319712A54080A3A03190D
:10054400742A54080B3A0319772A54080D3A0319EC
:100554007A2A54080E3A03197D2A54080F3A0319CB
:10056400802A54082A3A031DD42A5530EB0050211E
:100574007008ED007108EE005530EB00EC018021AD
:1005840001308316A4002F200130EB000130EC0071
:100594002430ED00F121A201A3010130CF0000308D
:1005A400D0000E2B5408233A031DFC2A3030EB00F4
:1005B4005530EC00DB2000307106031DE32A0030C7
:1005C4007006031DF02A01308316A4002F20353055
:1005D400EB003E218617A001A101FB2A01308316FE
:1005E400A4002F203D30EB003E210130CF0000302D
:1005F400D0000E2B2208553E840054088000A20A25
:100604000319A30A0230EB004F08EC002A30ED0076
:0C0614000721CF0A0319D00A482A0F2B37
:10068C0020308400313083120313F0001530D20077
:08069C000330D300FB2008002D
:04062A000034003464
:04062E000034003460
:1006320045346E3474346534723420345034613449
:08064200733473343A340034C0
:0A064A0031343234333434340034D8
:1006540043344F34523452344534433454340034E4
:0C066400573452344F344E3447340034C5
:1006700045346E347434653472342034503461340B
:08068000733473343A34003482
:040688000134003405
:02400E004A2F37
:00000001FF
