:02000000FA29DB
:10000800FF00030E8301E8000A08E6008A010B1DC1
:100018001328A00A0319A10A0B11063081006608EB
:0C0028008A00680E8300FF0E7F0E0900A6
:0400340000000800C0
:10003800083083120313FC002330FD00FD0B222837
:06004800FC0B2228080059
:10004E00103083120313FD00FD0B2B280000080057
:10005E0083160313A21B36288312871138288312A6
:10006E0087158316221B3E28831207114028831200
:10007E0007158316A21A4628831287104828831262
:10008E0087148316221A4E288312071050288312C3
:10009E0007146718542807165528071287161A20B2
:1000AE0087128316A2195E28831287116028831285
:1000BE008715831622196628831207116828831262
:1000CE0007158316A2186E288312871070288312C4
:1000DE008714831622187628831207107828831225
:1000EE00071467187C2807167D28071287161A2012
:0E00FE008712671C84281C20852827200800F4
:0E010C00033083120313FD00FD0B8A28080048
:10011A0083120313ED01EF018316A0011030A10031
:10012A00043020020318C628F03083128800803079
:10013A00F0007008083E840083162109F000700858
:10014A0080001A201A200F3083120805F000700868
:10015A00EE0070080319BD286F08ED006E08031938
:10016A00BA28EE0CEE13ED0AB32804308316A00069
:10017A008316A10D211004308312EF078316A00AFB
:0A018A00952883126D08F0000800AC
:100194008312031367106D088316A2002F206714BF
:0201A400080051
:0E01A6008312031350088A004F0882000800DD
:1001B400831203136908840000080319EE286908F0
:1001C40084000008F1006A08840071080006031D19
:1001D400EE28E90AEA0ADA28690884000008F0002F
:1001E4006A0884000008F002F101031CF10308000E
:1001F400831203136908F2006B08F0006C08F10025
:100204000130EB02031CEC0370087104031910297C
:10021400720884006A088000F20AFE286908F00067
:020224000800D0
:10022600831203136908F2007208F000F20A7008DC
:100236008400000803192029172969087202F000B2
:0C0246000130F002F101031CF10308007C
:1002520083120313EA016A0869078400000803197C
:100262003A296A08690784000008ED00CA20EA0AF0
:040272002C2908002B
:1002760083160313871207120710871007118711B9
:1002860083128712071287110711871007101C2087
:100296001C201C208714071487161A2087121C207E
:1002A60087161A2087121C2087161A2087121C20F0
:1002B600071087161A2087121C2087161A20871205
:1002C6008710871587161A2087121C208711071496
:1002D60087161A208712071087161A2087121C20E5
:1002E60087161A208712071487161A2087121C20D1
:1002F600071087161A208712871507158714071403
:0C03060087161A2087121C2067140800BC
:100312008B168B178316031381128111011481141A
:0A0322000115063083128100080067
:10032C008D207008E9000F300805F0000319A02992
:0A033C00862099296908F0000800E6
:10034600D3208A110A128000840ACF0A0319D00A20
:08035600F003031DA3290800B8
:10035E00803083120313F0007008083E8400FF30D3
:04036E008000080003
:10037200CB29803083120313E900DE29C030E90063
:10038200DE299430E900DE29D430E900DE2980300C
:10039200E900DE29831203136908013A0319BA2915
:1003A2006908023A0319BF296908033A0319C229E5
:1003B2006908043A0319C529C8296A03F0006908C3
:1003C200F0077008E90070088316A2002F2067105A
:1003D200EC016C086B07840000080319F8296C080B
:1003E2006B0784000008ED00CA20EC0AEA296714B2
:0203F200080001
:1003F400FA22831603138613AF213B21013083169F
:10040400A2002F200C308316A2002F200130E90017
:100414000130EA002E30EB00B92189210030210699
:10042400031D162A3F302006031D192A8613D10105
:1004340096217008D10070080319C32A861BC32AA9
:10044400472A3130D100772A3230D100772A33302D
:10045400D100772A3430D100772A3530D100772A79
:100464003630D100772A3730D100772A3830D1009E
:10047400772A3930D100772A2A30D100772A3030D0
:10048400D100772A2330D100772A5108013A031981
:10049400232A5108023A0319262A5108033A031958
:1004A400292A5108053A03192C2A5108063A031936
:1004B4002F2A5108073A0319322A5108093A031915
:1004C400352A51080A3A0319382A51080B3A0319F4
:1004D4003B2A51080D3A03193E2A51080E3A0319D2
:1004E400412A51080F3A0319442A51082A3A031D94
:1004F400942A5230E90013217008EB007108EC00D3
:100504005230E900EA01FA2001308316A2002F20BC
:100514000130E9000130EA002230EB00B921CD01BD
:10052400CE01C32A5108233A031DB82A4830E900F2
:100534005230EA00DA2000307106031DA32A00308D
:100544007006031DB02A01308316A2002F203A3012
:10055400E90029218617A001A101B72A01308316D9
:10056400A2002F204230E9002921C32A4D08523E1F
:10057400840051088000CD0A0319CE0A2A30ED0008
:06058400CA20102AC42A5F
:1005F400203084002F3083120313F000CA30CF0060
:080604000230D000A321080020
:0405940000340034FB
:1005980045346E34743465347234203450346134E4
:0805A800733473343A3400345B
:1005B00045346E34743465347234203450346134CC
:0805C000733473343A34003443
:1005C80043344F3452345234453443345434003471
:0C05D800573452344F344E344734003452
:0A05E400313432343334343400343F
:0405EE0000340034A1
:02400E004A2F37
:00000001FF
